:020000040800F2
:1000000000500020750500081105000813050008C0
:100010001505000817050008190500080000000074
:100020000000000000000000000000001B050008A8
:100030001D050008000000001F050008210500083C
:10004000BD050008BD050008BD050008BD05000888
:10005000BD050008BD050008BD050008BD05000878
:10006000BD050008BD050008BD050008BD05000868
:10007000BD050008BD050008BD050008BD05000858
:10008000BD050008BD050008BD050008BD05000848
:10009000BD050008BD050008BD050008BD05000838
:1000A000BD050008BD050008BD050008BD05000828
:1000B000BD050008BD050008BD050008BD05000818
:1000C000BD050008BD050008BD050008BD05000808
:1000D000BD050008BD050008BD050008BD050008F8
:1000E000BD050008BD050008BD05000800000000B2
:1000F0000000000000000000000000000000000000
:0C01000000000000000000005FF808F1A3
:10010C0010B5054C237833B9044B13B10448AFF345
:10011C0000800123237010BD4C080020000000005B
:10012C00142F000808B5034B1BB103490348AFF368
:10013C00008008BD0000000050080020142F0008AB
:10014C00844641EA000313F0030349D1403A23D318
:10015C000B6803604B6843608B688360CB68C3603B
:10016C000B6903614B6943618B698361CB69C36123
:10017C000B6A03624B6A43628B6A8362CB6AC3620B
:10018C000B6B03634B6B43638B6B8363CB6BC363F3
:10019C0040304031403ADBD230320BD30B68036035
:1001AC004B6843608B688360CB68C3601030103140
:1001BC00103AF3D20C3205D351F8043B40F8043B0F
:1001CC00043AF9D2043208D0D2071CBF11F8013B13
:1001DC0000F8013B01D30B8803806046704700BFD9
:1001EC00082A13D38B07B1D010F00303AED0C3F1A0
:1001FC000403D21ADB071CBF11F8013B00F8013BCA
:10020C00A4D331F8023B20F8023B9FE7043AD9D340
:10021C00013A11F8013B00F8013BF9D20B7803705D
:10022C004B7843708B7883706046704730B589B0DB
:10023C0000240494059406940794184B9A6942F090
:10024C0020029A619A6902F020020192019A9A693D
:10025C0042F004029A619A6902F004020292029A34
:10026C009A6942F008029A619B6903F008030393B0
:10027C00039B0B4D01224FF44071284600F054FBB8
:10028C004FF44073049311230593069403230793AF
:10029C0004A9284600F036FA09B030BD001002401F
:1002AC00000C014072B6FEE708B50A480A4B036021
:1002BC004FF4E133436000238360C36003610C227D
:1002CC0042618361C36100F0E7FE00B908BDFFF72E
:1002DC00E9FF00BF680800200038014000B591B06C
:1002EC002822002106A800F0F5FF002301930293B9
:1002FC00039304930593012206924FF480330793E2
:10030C000A9202220D920E934FF4E0130F9306A85B
:10031C0000F026FB80B90F230193022102910023E8
:10032C0003934FF480620492059301A800F04AFDF8
:10033C0020B911B05DF804FBFFF7B4FFFFF7B2FF73
:10034C0008B500F05DF9FFF7C9FFFFF76FFFFFF786
:10035C00ABFF034800F008F8024801F05BF8FBE73C
:10036C00680800202C2F000808B5054B1860054BB9
:10037C001868002302221946806801F053F808BD62
:10038C00B00800200C000020022801D80120704782
:10039C0008B500F075FF09230360002008BD0000BC
:1003AC0010B5013801280AD814464FF0FF3392B229
:1003BC000748006800F0A0FE40B9204610BD00F0D0
:1003CC005FFF092303604FF0FF30F7E70520F5E7E7
:1003DC00B0080020022801D80020704708B500F0B2
:1003EC004FFF092303604FF0FF3008BD08B500F044
:1003FC0047FF092303604FF0FF3008BD08B548B92B
:10040C004FF0FF3301220848006800F0D4FE40B9D9
:10041C00012008BD00F034FF092303604FF0FF30CA
:10042C00F7E70520F5E700BFB008002008B5022863
:10043C0004D84FF400534B60002008BD00F020FF9F
:10044C0009230360F8E7000082B00E4B9A6942F072
:10045C0001029A619A6902F001020092009ADA692B
:10046C0042F08052DA61DB6903F080530193019B07
:10047C00054A536823F0E06343F00073536002B005
:10048C00704700BF001002400000014010B586B05C
:10049C00002302930393049305930268174B9A422B
:1004AC0001D006B010BD03F558439A6942F480425E
:1004BC009A619A6902F480420092009A9A6942F019
:1004CC0004029A619B6903F004030193019B4FF4AE
:1004DC00007302930223039303230593084C02A990
:1004EC00204600F00FF94FF480630293002303932E
:1004FC00049302A9204600F005F9D2E70038014028
:10050C0000080140FEE7FEE7FEE7FEE7FEE7704766
:10051C007047704708B500F085F808BD10B5034664
:10052C000C4A0D490D48006840B10C480068034462
:10053C00521A934206D8094A136010BD0748084C5A
:10054C000460F2E700F09CFE0C2303604FF0FF30D8
:10055C00F3E700BF0050002000040000B4080020A6
:10056C000809002070470000FFF7FCFF0B480C49FE
:10057C000C4A002302E0D458C4500433C4188C42F3
:10058C00F9D3094A094C002301E013600432A2425A
:10059C00FBD300F07BFEFFF7D3FE7047000000207A
:1005AC004C080020742F00084C080020040900207F
:1005BC00FEE7000010B504460D4B18780D4BB3FB4D
:1005CC00F0F30D4A1068B0FBF3F000F087F868B94F
:1005DC000F2C01D901200AE0002221464FF0FF30F8
:1005EC0000F044F8054B1C60002000E0012010BD19
:1005FC000400002040420F000000002008000020F2
:10060C0008B5074A136843F010031360032000F089
:10061C001BF80F20FFF7CEFFFFF716FF002008BDD9
:10062C0000200240034A1168034B1B780B441360F3
:10063C00704700BFB808002004000020014B186868
:10064C00704700BFB8080020074AD36823F4E06362
:10065C001B041B0C000200F4E060034343F0BF6377
:10066C0043F40033D360704700ED00E000B5194B44
:10067C00DB68C3F30223C3F1070CBCF1040F28BFE2
:10068C004FF0040C03F1040EBEF1060F18D9033B16
:10069C004FF0FF3E0EFA0CFC21EA0C0199400EFAC9
:1006AC0003F322EA0303194300280BDB0901C9B247
:1006BC0000F1604000F5614080F800135DF804FB28
:1006CC000023E5E700F00F000901C9B2024B1954F1
:1006DC00F4E700BF00ED00E014ED00E00138B0F1EC
:1006EC00807F0BD24FF0E0235861054AF02182F84D
:1006FC0023100020986107221A617047012070476F
:10070C0000ED00E070B582B00024A446A6E0804D58
:10071C00AA4210D007D97F4DAA420CD005F58035DE
:10072C00AA4208D013E0A5F58015AA4203D005F51E
:10073C007025AA4207D18A68002A58D0012A51D0C4
:10074C004361082403E0A5F58015AA42F3D0BEF15D
:10075C00FF0F4ED80646BEF1FF0F4CD84FEA8C0265
:10076C0033680F25954023EA050304FA02F213437C
:10077C0033604B6813F0805F6ED0674B9A6942F020
:10078C0001029A619B6903F001030193019B4FEAFB
:10079C009C02951C614B53F825600CF003039D00E3
:1007AC000F23AB4026EA03065D4B984229D003F594
:1007BC008063984200F08E8003F58063984200F0CD
:1007CC008B8003F58063984219D004231AE0CC681F
:1007DC00BDE7CC680434BAE7CC680834B7E7CC681A
:1007EC000C34B4E703610824B1E70024AFE7042418
:1007FC00ADE7061DAFE7ACF108029200B0E70323AA
:10080C0000E00023AB4033430232444D45F8223024
:10081C004B6813F4801F61D0424A936843EA0E037D
:10082C0093604B6813F4001F5ED03E4AD36843EAD2
:10083C000E03D3604B6813F4003F5BD0394A536806
:10084C0043EA0E0353604B6813F4803F58D0354A8B
:10085C00136843EA0E0313600CF1010C0A6832FAB8
:10086C000CF353D0012303FA0CF302EA030E33EA20
:10087C000202F1D14A68122A3FF649AF122A3FF61A
:10088C0066AF01A555F822F043070008DB07000806
:10089C00E5070008F70700085B0700085B0700087E
:1008AC005B0700085B0700085B0700085B07000894
:1008BC005B0700085B0700085B0700085B07000884
:1008CC005B0700085B0700085B070008DF070008F0
:1008DC00EB070008012395E7022393E7114A93687D
:1008EC0023EA0E0393609CE70E4AD36823EA0E03B7
:1008FC00D3609FE70B4A536823EA0E035360A2E7C9
:10090C00084A136823EA0E031360A5E702B070BD12
:10091C0000002210000031100010024000000140C5
:10092C0000080140000401400AB10161704709044C
:10093C000161704782B0084B1B68084AA2FB032375
:10094C005B0A00FB03F3019300BF019B5A1E01924B
:10095C00002BF9D102B0704700000020D34D62107B
:10096C00002800F0F18170B582B00446036813F0E2
:10097C00010F2CD0994B5B6803F00C03042B1DD09A
:10098C00964B5B6803F00C03082B12D06368B3F52D
:10099C00803F41D0002B55D103F1804303F5043344
:1009AC001A6822F480321A601A6822F480221A60C3
:1009BC0037E08A4B5B6813F4803FE7D0874B1B68AA
:1009CC0013F4003F03D06368002B00F0BF81236851
:1009DC0013F0020F75D0814B5B6813F00C0F5FD0D6
:1009EC007E4B5B6803F00C03082B54D02369002B5F
:1009FC0000F08A807A4B01221A60FFF71FFE054631
:100A0C00764B1B6813F0020F75D1FFF717FE401BD6
:100A1C000228F5D903209EE1704A136843F4803311
:100A2C001360636843B3FFF709FE05466B4B1B6805
:100A3C0013F4003FCBD1FFF701FE401B6428F5D91E
:100A4C00032088E1B3F5A02F09D0644B1A6822F477
:100A5C0080321A601A6822F480221A60E1E703F1EE
:100A6C008043A3F53C331A6842F480221A601A685A
:100A7C0042F480321A60D4E7FFF7E0FD0546574B8D
:100A8C001B6813F4003FA2D0FFF7D8FD401B64286D
:100A9C00F5D903205FE1514B5B6813F4803FA5D17E
:100AAC004E4B1B6813F0020F03D02369012B40F04F
:100ABC004F814A4A136823F0F803616943EAC10382
:100ACC001360236813F0080F33D0A369002B5CD09C
:100ADC00434B0122C3F88024FFF7B0FD05463F4B82
:100AEC005B6A13F0020F21D1FFF7A8FD401B02280F
:100AFC00F5D903202FE1394A136823F0F803616913
:100B0C0043EAC1031360DCE7354B00221A60FFF7A0
:100B1C0095FD0546314B1B6813F0020FD1D0FFF742
:100B2C008DFD401B0228F5D9032014E10120FFF7AD
:100B3C0001FF236813F0040F00F09680274BDB694C
:100B4C0013F0805F34D1254BDA6942F08052DA61C0
:100B5C00DB6903F080530193019B0125214B1B683A
:100B6C0013F4807F26D0E368012B3DD0002B53D1AA
:100B7C0003F1804303F504331A6A22F001021A626E
:100B8C001A6A22F004021A6233E0154B0022C3F8F1
:100B9C008024FFF753FD0546104B5B6A13F0020FE0
:100BAC00C7D0FFF74BFD401B0228F5D90320D2E03C
:100BBC000025D3E70B4A136843F480731360FFF7E7
:100BCC003DFD0646074B1B6813F4807FCBD1FFF726
:100BDC0035FD801B6428F5D90320BCE000100240D1
:100BEC0000004242007000405F4A136A43F0010368
:100BFC001362E36833B3FFF721FD06465A4B1B6AB9
:100C0C0013F0020F2FD1FFF719FD801B41F288332F
:100C1C009842F3D903209EE0052B09D0524B1A6A57
:100C2C0022F001021A621A6A22F004021A62E0E748
:100C3C004D4B1A6A42F004021A621A6A42F001021F
:100C4C001A62D6E7FFF7FAFC0646474B1B6A13F00D
:100C5C00020F08D0FFF7F2FC801B41F28833984258
:100C6C00F3D9032077E0E5B9E369002B72D03E4A53
:100C7C00526802F00C02082A56D0022B17D03B4BBC
:100C8C0000221A66FFF7DAFC0446374B1B6813F098
:100C9C00007F47D0FFF7D2FC001B0228F5D90320B8
:100CAC0059E0314AD36923F08053D361DCE72F4BF1
:100CBC0000221A66FFF7C2FC05462B4B1B6813F08B
:100CCC00007F06D0FFF7BAFC401B0228F5D90320A1
:100CDC0041E0236AB3F5803F1AD023494B6823F4D3
:100CEC007413226A606A024313434B601F4B012248
:100CFC001A66FFF7A3FC04461B4B1B6813F0007F1E
:100D0C000ED1FFF79BFC001B0228F5D9032022E033
:100D1C00154A536823F40033A1680B435360DCE796
:100D2C00002018E0002016E0012B16D00E4B5B685B
:100D3C0003F48031226A914211D103F47013626A78
:100D4C0093420ED1002006E001207047012002E002
:100D5C00012000E0002002B070BD0120FBE7012063
:100D6C00F9E70120F7E700BF001002400000424203
:100D7C000F4B5B6803F00C02082A01D00D4870473A
:100D8C00C3F383420C49885C13F4803F0BD0084BAF
:100D9C005B68C3F34043094AD35C064A02FB00F08C
:100DAC00B0FBF3F07047064B03FB00F0704700BF3D
:100DBC000010024000127A004C2F00085C2F000833
:100DCC0000093D00002800F0A08070B50D460446D7
:100DDC00524B1B6803F007038B420BD24F4A13682C
:100DEC0023F007030B431360136803F007038B42D4
:100DFC0040F08D80236813F0020F17D013F0040F0E
:100E0C0004D0474A536843F4E0635360236813F0FB
:100E1C00080F04D0424A536843F460535360404A6D
:100E2C00536823F0F003A1680B435360236813F05D
:100E3C00010F31D06368012B20D0022B25D0384A0A
:100E4C00126812F0020F64D035494A6822F003028E
:100E5C0013434B60FFF7F2FB0646314B5B6803F024
:100E6C000C036268B3EB820F16D0FFF7E7FB801B15
:100E7C0041F288339842F0D9032045E0284A1268A1
:100E8C0012F4003FE0D101203EE0254A126812F036
:100E9C00007FD9D1012037E0204B1B6803F00703FA
:100EAC00AB420AD91D4A136823F007032B43136086
:100EBC00136803F00703AB422DD1236813F0040F22
:100ECC0006D0174A536823F4E063E1680B43536080
:100EDC00236813F0080F07D0114A536823F46053AA
:100EEC00216943EAC1035360FFF742FF0C4B5B6877
:100EFC00C3F303130B4AD35CD8400B4B18600B4B5A
:100F0C001868FFF757FB002070BD012070470120C7
:100F1C00FAE70120F8E70120F6E700BF00200240C5
:100F2C0000100240342F00080000002008000020B0
:100F3C00014B1868704700BF0000002008B5FFF790
:100F4C00F7FF044B5B68C3F30223034AD35CD8401E
:100F5C0008BD00BF00100240442F000808B5FFF781
:100F6C00E7FF044B5B68C3F3C223034AD35CD8404E
:100F7C0008BD00BF00100240442F000810B5044605
:100F8C000268136923F44053C1680B4313618368EF
:100F9C000269134342691A430168CB6823F4B053C6
:100FAC0023F00C031343CB600268536923F44073A2
:100FBC0081690B4353610268134B9A4220D0FFF7AF
:100FCC00BDFF024602EB820202EB820263689B00C9
:100FDC00B2FBF3F20D48A0FB02314909642303FB79
:100FEC0011231B013233A0FB03235B0903F0F00236
:100FFC0002EB011203F00F03216813448B6010BD48
:10100C00FFF7ACFF0246DDE7003801401F85EB51CE
:10101C002DE9F84305460F4616469946DDF8208023
:10102C002C68246837EA04030CBF4FF0010C4FF016
:10103C00000CB4452DD1B8F1FF3FF1D0B8F1000F41
:10104C0005D0FFF7FBFAA0EB09004045E8D92A6868
:10105C0002F10C0353E8003F23F4D0730C3242E846
:10106C0000310029F3D12A6802F1140353E8003F40
:10107C0023F00103143242E800310029F3D120237C
:10108C0085F8413085F84230002385F84030032044
:10109C0000E00020BDE8F88360B310B5044690F87A
:1010AC00413013B3242384F841302268D36823F4ED
:1010BC000053D3602046FFF761FF2268136923F4C5
:1010CC00904313612268536923F02A035361226809
:1010DC00D36843F40053D36000206064202384F869
:1010EC00413084F84230606310BD80F84030FFF727
:1010FC00CDF9D7E7012070472DE9F04182B01E46AB
:10110C0090F84130DBB2202B4BD104460D46904673
:10111C0000294AD00AB9012044E00023436421236A
:10112C0080F84130FFF78AFA0746A4F82480A4F827
:10113C002680A368B3F5805F02D04FF000080FE063
:10114C002369FBB14FF000080AE038F8023B226833
:10115C00C3F308035360E28C92B2013A92B2E28478
:10116C00E38C9BB28BB100963B460022802120463B
:10117C00FFF74EFFD8B9002DE7D015F8012B2368E7
:10118C005A60E8E7A8460025EAE700963B460022AD
:10119C0040212046FFF73CFF58B9202384F841300A
:1011AC0000E0022002B0BDE8F0810120FAE7032044
:1011BC00F8E70320F6E72DE9F04182B01E4690F8DF
:1011CC004230DBB2202B53D104460D469046002909
:1011DC0052D00AB901204CE000234364222280F84B
:1011EC0042200363FFF72AFA0746A4F82C80A4F8E0
:1011FC002E80A368B3F5805F02D04FF0000817E093
:10120C00236913B14FF0000812E0A84600250FE047
:10121C0023685B68C3F3080328F8023B03E02368E8
:10122C005B682B700135E28D92B2013A92B2E28585
:10123C00E38D9BB2BBB100963B4600222021204699
:10124C00FFF7E6FED0B9002DE2D0A368B3F5805FBE
:10125C00E5D013B92369002BE1D023685B6803F058
:10126C007F032B70DEE7202384F84230002000E05F
:10127C00022002B0BDE8F0810120FAE70320F8E774
:10128C00014B1868704700BF0C00002070B50D4E64
:10129C000D4D761BB61006D0002455F8043B0134D6
:1012AC009847A642F9D1094E094D01F02DFE761B47
:1012BC00B61006D0002455F8043B01349847A642DA
:1012CC00F9D170BD682F0008682F0008702F000836
:1012DC00682F0008830730B548D0541E002A3FD031
:1012EC000346CAB201E0013C3AD303F8012B9D0737
:1012FC00F9D1032C2DD9CDB245EA05250F2C45EAA1
:10130C00054536D9A4F1100222F00F0C03F1200E82
:10131C00E6444FEA121C03F1100242E9045542E97B
:10132C00025510327245F8D10CF1010214F00C0F79
:10133C0003EB021204F00F0C13D0ACF1040323F0F6
:10134C0003030433134442F8045B9342FBD10CF0C7
:10135C0003042CB1CAB21C4403F8012B9C42FBD1F0
:10136C0030BD64461346002CF4D1F9E7034614460D
:10137C00BFE71A46A446E0E730B5054689B00846F3
:10138C000C4600F027F901210223214A049406920D
:10139C00AA6B04AC0590084401940791AC680293C5
:1013AC00039022B3636E13F0010FB4F90C309AB2B0
:1013BC0001D1980525D5910406D4626E43F40053EF
:1013CC0022F40052A3816266284601AA214600F04D
:1013DC0067FC636E002814BF4FF0FF350A25DA074F
:1013EC0002D4A3899B0506D5284609B030BD2846F2
:1013FC0000F05EFAD6E7A06D00F0F4FD284609B0C7
:10140C0030BDA06D00F0ECFDB4F90C309AB2D2E70F
:10141C00642F0008024B01461868FFF7ADBF00BFF0
:10142C000C0000202DE9F043694C0E46D4F80080E6
:10143C00174604461D4683B0B8F1000F03D0D8F808
:10144C003830002B77D0022F05D0012F00F2AC8062
:10145C00002DC0F2A980636EDA0752D521464046B2
:10146C0000F0F2F9216B41B104F14003994202D032
:10147C00404600F015FB002323630023B4F90CC095
:10148C00A3611CF0800F636064D12CF44A6C2CF0C7
:10149C00030C022FA4F80CC06AD001AB21464046C5
:1014AC006A4600F011FEA3891843A081002D2FD0AD
:1014BC00002E2ED0D8F83830002B38D0009BC4E941
:1014CC000465AB42B4F90C3026601CBF43F40063D6
:1014DC00A381012F04BF43F00103A3819AB213F03F
:1014EC0008032CD0D1075DD500216D42A561656E36
:1014FC00A16015F0010527D00025284603B0BDE8F2
:10150C00F083A3899B05A9D4A06D00F069FDA5E724
:10151C00009D284600F008FE0646002847D0A38907
:10152C0043F08003A381D8F83830002BC6D1404655
:10153C0000F0BEF9C2E7404600F0BAF983E7A360B9
:10154C00656E15F00105D7D1930524D5284603B057
:10155C00BDE8F0834046216900F0A2FAB4F90CC052
:10156C00022F2CF44A6C2CF0030CA4F80CC094D170
:10157C0000250021012204F1430323602361636EE3
:10158C004CF0020CD807A4F80CC0A1606261DDD449
:10159C001CF4007FDAD1A06D00F024FD284603B0C6
:1015AC00BDE8F083A560CBE74FF0FF35CEE7DDF863
:1015BC000090A94504D0484600F0B6FD064620B977
:1015CC004FF0FF35B4F90CC0D3E74D46A7E700BF89
:1015DC000C00002020F0030110F00300C0F100000B
:1015EC0051F8043B00F1040C4FEACC0C6FF00002F4
:1015FC001CBF22FA0CF213434FF0010C4CEA0C2CDA
:10160C004CEA0C4CA3EB0C0222EA030212EACC12B9
:10161C0004BF51F8043B0430F4D0C2F1000102EADB
:10162C000102B2FA82F2C2F11F0200EBD200704743
:10163C0038B5334B05461B680C460BB19A6B12B38D
:10164C00B4F90C3018079AB225D5216900292DD090
:10165C0012F0010007D000256069A5604042A0612E
:10166C0039B1002038BD950758BF6069A0600029CA
:10167C00F7D1120658BF0846F4D543F040034FF09B
:10168C00FF30A38138BD184600F012F9B4F90C30C4
:10169C0018079AB2D9D4D1062AD5520714D4216985
:1016AC0043F00803A3819AB20029D1D102F420702F
:1016BC00B0F5007FCCD02146284600F095FCB4F95B
:1016CC000C3021699AB2C3E7216B51B104F140028D
:1016DC00914204D0284600F0E3F9B4F90C30002212
:1016EC0022630022216923F02403C4E90012D7E706
:1016FC00092243F040032A604FF0FF30A38138BD2C
:10170C000C000020024B13B1024800F005B87047E2
:10171C0000000000E1190008002301461A46184693
:10172C0001F0E2BAB1F90C20F8B50C4611070746E6
:10173C0043D4636842F40062002BA2815BDDA56A8E
:10174C00002D56D000233E683B6093B212F48052B9
:10175C0055D101233846E169A847421C65D0A389BD
:10176C00A56A5B0705D56368C01A236B0BB1E36BE5
:10177C00C01A0246E16900233846A847411C40D1F3
:10178C003B68002B3DD01D2B01D0162B54D10022D1
:10179C00A38923F40063A3812369C4E90032216B7C
:1017AC003E6031B304F14003994202D0384600F058
:1017BC0077F9002318462363F8BD2669CEB193B29E
:1017CC009A0718BF0023256808BF63692660AD1B04
:1017DC00A3600CE02B463246D4F824C03846E169AD
:1017EC00E047B0F1000CA5EB0C05664416DD002DAE
:1017FC00F0DC0020F8BDE36B002BA0DCF9E7206DDA
:10180C00AFE70022B4F90C30626023F40063226964
:10181C00A381DB042260C2D52065C0E7A3894FF009
:10182C00FF3043F04003A381F8BD3B68002B96D0FA
:10183C001D2B06D0162B04D0A38943F04003A381A3
:10184C00F8BD00203E60F8BD38B505460C4608B121
:10185C00836BA3B1B4F90C00B8B1636EDB0701D490
:10186C00810515D528462146FFF75CFF636E0546BA
:10187C00DA0702D4A3899B050ED5284638BD00F0A3
:10188C0017F8B4F90C000028E7D10546284638BDF6
:10189C00A06D00F0A5FBE5E7A06D00F0A3FB2846CA
:1018AC0038BD00BF014900F073BB00BFA52D000877
:1018BC002DE9F0478246394800F092FBDAF83840BF
:1018CC00002C66D1042303223549DAF80450CAF8F7
:1018DC003C10DFF8D090DFF8D080344F344E0AF54E
:1018EC003B71CAE9B921CAF8E0422146EB600822F3
:1018FC00C5E90044C5E904446C66AC60AC6105F113
:10190C005C00FFF7E7FCC5E90759C5E90987EE62FA
:10191C0005F1580000F060FBDAF80850254B214621
:10192C00EB600822C5E90044C5E904446C66AC6070
:10193C00AC6105F15C00FFF7CDFCC5E90759C5E9C1
:10194C000987EE6205F1580000F046FBDAF80C50FE
:10195C00194B2146EB600822C5E90044C5E9044453
:10196C006C66AC60AC6105F15C00FFF7B3FC05F193
:10197C005800C5E90759C5E90A76C5F8248000F076
:10198C002BFB01230548CAF83830BDE8F04700F0BE
:10199C0029BB0248BDE8F04700F024BBC808002072
:1019AC00B11800083D2C0008612C0008A12C00087F
:1019BC00C12C00080900010012000200014800F0CF
:1019CC000FBB00BFC4080020014800F00BBB00BFD8
:1019DC00C408002038B5084B084D5B1B9C1007D081
:1019EC00043B1D44013C55F804399847002CF9D1AF
:1019FC00BDE8384001F08EBA742F0008702F000833
:101A0C00F8B50C46234F064600F006FFBB685D6830
:101A1C00C4F57E6325F003050F332B4423F47F6359
:101A2C0023F00F03A3F58054B4F5805F07DB00218E
:101A3C00304601F0EBF8BB682B44984204D030469A
:101A4C0000F0F0FE0020F8BD3046614201F0DEF8F7
:101A5C0001300DD0104ABB682D1B45F001055D60AF
:101A6C00136830461B1B136000F0DCFE0120F8BD30
:101A7C000021304601F0CAF8BA68831A0F2BDEDD5C
:101A8C0043F001035360054B03491B68C01A0860FF
:101A9C00D5E700BF3C040020CC08002044080020FF
:101AAC0000295ED0F8B50C46064600F0B5FE54F899
:101ABC00042C784FA4F1080522F001016818D7F81E
:101ACC0008C04368844523F0030300F08780D207E5
:101ADC00436034D454F8082C07F10804AD1A1144AF
:101AEC00AA68A24268D000EB030CDCF804E0D5F83D
:101AFC000CC01EF0010FC2F80CC0CCF8082000F08E
:101B0C00918041F001036B600160B1F5007F31D22F
:101B1C004A09CB08012191407A680133114379605D
:101B2C0007EBC30257F83310083AC5E9021247F81D
:101B3C003350CD603046BDE8F84000F073BEC2189B
:101B4C005268D2070ED4194407F108048368A342E3
:101B5C0070D0C268DA60936041F001036B60695029
:101B6C00D3E7704741F00103B1F5007F44F8043C22
:101B7C000160CDD3B1F5206F4FEA512347D28B09C9
:101B8C0003F1390003F13802C300F818FB58083888
:101B9C00984258D05A6822F003028A4202D99B68B4
:101BAC009842F7D1D868C5E9023085603046DD60CF
:101BBC00BDE8F84000F036BEC2185268D20763D4B4
:101BCC000B44D0E90212CA60916043F001026A60D2
:101BDC003046EB50BDE8F84000F024BE0B44D10772
:101BEC0007D454F8082CAD1A1344D5E90212CA6074
:101BFC00916043F001026A60274ABD6012689A4204
:101C0C0098D8264B30461968FFF7FAFE92E7142B4A
:101C1C000AD9542B1FD80B0B03F16F0003F16E0282
:101C2C00C300B2E7194491E703F15C0003F15B02D6
:101C3C00C300AAE741F00103C7E90455C5E9024412
:101C4C006B60695076E70121921001FA02F2796813
:101C5C000A437A60A7E7B3F5AA7F06D8CB0B03F14A
:101C6C00780003F17702C3008FE740F2545293429D
:101C7C0006D88B0C03F17D0003F17C02C30084E7D2
:101C8C004FF47E737E2280E741F001036B600160AC
:101C9C0050E700BF3C04002048080020FC0800204E
:101CAC009368002B00F0B7802DE9F04FB1F90C30A0
:101CBC000C4619078046174683B098B225D5236980
:101CCC001BB310F002033D682DD04FF0000B5E46A5
:101CDC00DFF8B8A2002E00F08B80564533465A46EA
:101CEC0028BF53464046E169D4F824C0E047002899
:101CFC0040F38780BB6883441B1A361ABB60002BE9
:101D0C00E8D1002003B0BDE8F08F21464046FFF734
:101D1C008FFC002840F03681B4F90C303D6898B245
:101D2C0010F00203D1D110F0010976D14E46002EED
:101D3C005AD08205D4F808B040F1B580B3455A4664
:101D4C0000F2CD8010F4906F00F0CB8023682169F5
:101D5C00A3EB010B636903EB430A0AEBDA7A0BF191
:101D6C0001034FEA6A0A33445345524684BF9A46EC
:101D7C005246430540F1EA801146404600F0DCF93A
:101D8C00002800F0F9805A4621690190FEF7D8F935
:101D9C00A289019B22F4906242F08002A28103EBA3
:101DAC000B0023613246AAEB0B03B346C4F814A014
:101DBC00A3602060B24600264946019200F0B0FCB8
:101DCC00A3682168019AA3EB0B030A44A360226069
:101DDC00B868D144A0EB0A00B860002891D0B4F9DF
:101DEC000C0080B2002EA4D1D5E9009608359EE7F0
:101DFC00D5E900B608356DE721464046FFF724FDCE
:101E0C0080B3B4F90C304FF0FF3043F04003A381A2
:101E1C0003B0BDE8F08F002070471E46AA469946D5
:101E2C0018461D4656B3002832D04A462068216910
:101E3C00B24228BF32468842636904D9A16803EBD9
:101E4C00010B5A4574DC934265DC2A464046E16935
:101E5C00D4F824C0E047B0F1000BD2DDB9EB0B098C
:101E6C00CAD00120BB685D44A3EB0B03A6EB0B06A9
:101E7C00BB60002B3FF445AF002ED4D10AF1080310
:101E8C0053F8046C9A4653F8085C0833002EF7D0CC
:101E9C0032460A21284600F0FBFB002869D00130AD
:101EAC00A0EB0509C1E72068236998421BD8636938
:101EBC00B34218D86FF0004CB44528BFB4469CFB15
:101ECC00F3FC4A4603FB0CF34046E169D4F824C00A
:101EDC00E047B0F1000A94DDA6EB0A0678E7B346BA
:101EEC003246206866E7B345DA4628BFB246494613
:101EFC00524600F015FCA3682268A3EB0A03524477
:101F0C00A3602260002BE7D121464046FFF79CFCE2
:101F1C000028E1D075E729469346019200F000FCB9
:101F2C00A368019A9B1AA36023681A44226095E760
:101F3C0029465A4600F0F4FB236821465B44404690
:101F4C002360FFF781FC002888D05AE7404600F058
:101F5C006FFC034600287FF422AF40462169FFF74F
:101F6C009FFD0C22B4F90C30C8F8002023F080033C
:101F7C0049E7721C914659E70C22B4F90C30C8F8A9
:101F8C00002040E74FF0FF30BCE600BF00FCFF7FB5
:101F9C002DE9F8434FF000090746884600F53876DE
:101FAC00D6E90154013D10D4A389013D012B08D978
:101FBC00B4F90E30013304D021463846C04749EA03
:101FCC0000096B1C04F16804EED13668002EE7D1D1
:101FDC004846BDE8F88300BF704700BF704700BF9C
:101FEC00704700BF704700BF2DE9F0418B890C464C
:101FFC00990796B008D5012204F14303C4E90432D1
:10200C00236016B0BDE8F081B4F90E100646002925
:10201C0027DB6A4600F026FF002821DB019D4FF4E8
:10202C00806805F47045A5F50055B5FA85F54FF4B3
:10203C0000676D094146304600F07EF8B4F90C306B
:10204C00F0B1204A43F08003F263C4F81480A381FA
:10205C002060206135BB3B43A38116B0BDE8F08105
:10206C00A38913F0800519D04FF040083046414643
:10207C00002500F061F82F46B4F90C300028E0D1AF
:10208C009A05BED4012123F0030304F1430243F06B
:10209C000203C4E90421A3812260B2E74FF48068F3
:1020AC002F46C7E73046B4F90E1000F0EFFE10B91A
:1020BC00B4F90C30CFE7A38923F0030343F00103F9
:1020CC001BB2C8E7B118000870B50C46B1F90E1078
:1020DC00154600291E4696B014DB6A4600F0C2FE77
:1020EC0000280FDB019A4FF4806302F47042A2F5D2
:1020FC000052B2FA82F24FF40060520932602B6047
:10210C0016B070BD0023B4F90C10336011F08000D0
:10211C0004D0402218462A6016B070BD4FF480637C
:10212C002B6016B070BD00BF024B0146186800F062
:10213C0003B800BF0C0000202DE9F04F01F10B0596
:10214C00162D064683B025D8102900F2B88000F071
:10215C0063FB102518224FF0020CB54F3A4453681C
:10216C00A2F108018B4200F0B7805A68D96822F0BE
:10217C0003021A449C683046E1608C60516803F19C
:10218C00080441F00101516000F04CFB204603B003
:10219C00BDE8F08F35F0070500F19180A94200F2FF
:1021AC008E8000F039FBB5F5FC7FC0F094816B0A92
:1021BC0000F08C80042B00F26A81AB0903F1390C1E
:1021CC0003F138044FEACC00994F3844436808387F
:1021DC00984206D10CE0002980F22681DB689842F7
:1021EC0006D05A6822F00302511B0F29F3DDA446D6
:1021FC003C69DFF840E274457AD0626822F0030251
:10220C00531B0F2B00F37681002BC7E904EE80F2F1
:10221C006781B2F5007F80F019810121D308520942
:10222C000B4491407A6857F833000A4307EBC3011B
:10223C000839A060E1607A6047F83340C46001213E
:10224C004FEAAC039940914259D8114206D12CF077
:10225C00030C490011420CF1040CFAD007EBCC0929
:10226C0048466446D0F80C80404508D11CE1002B50
:10227C0080F22181D8F80C80404500F01581D8F807
:10228C00042022F00302531B0F2BF0DD08EB050199
:10229C0045F00105C8F804503046D8E90264F460F2
:1022AC00A66043F00104C7E904114C60C1E902EED9
:1022BC0048F8023000F0B6FA08F1080402E00C23EA
:1022CC0000243360204603B0BDE8F08F4FF400705B
:1022DC004FF0400C3F2477E7D3689A4208BF0CF1CB
:1022EC00020C7FF442AF3C69DFF848E1744584D1BD
:1022FC0001217A684FEAAC0399409142A5D9BC6898
:10230C00636823F003094D4503D8A9EB05030F2B94
:10231C007ADCDFF824B1494BDBF800201B68013272
:10232C002B4404EB090A00F02F8103F580530F3383
:10233C0023F47F6828F00F084146304600F066FC15
:10234C00411C024600F0EF80824500F2EA803C4BD3
:10235C00196841440846196000F04981DBF8001007
:10236C00019301311BBFA2EB0A0A5044CBF80020A9
:10237C00186012F0070B00F01181CBF108010A4430
:10238C00CBF5805190440831A1EB0801C1F30B0A45
:10239C0051463046009200F039FC421CDDE9002326
:1023AC0000F04B81801A00EB0A08196848F0010014
:1023BC005144BC42BA601960506000F02481B9F1FC
:1023CC000F0F40F222814FF0050E6068A9F10C0C42
:1023DC002CF0070C00F0010040EA0C006060BCF12E
:1023EC000F0F04EB0C00C0E901EE00F22E81144635
:1023FC005068144B1A688A4238BF1960124B1A681D
:10240C008A4238BF196090E0621943F0010345F02D
:10241C00010565603046BA600834536000F002FA7A
:10242C00204603B0BDE8F08FD9681A44A2E600BF7D
:10243C003C0400204404002044080020FC08002038
:10244C00CC080020F4080020F8080020B2F5206F1A
:10245C004FEA52235FD3142B00F2B18003F15C01DD
:10246C00C9005B33781879580838884200F08F809F
:10247C004B6823F00303934202D989688842F7D151
:10248C00C8687A68C4E902108460CC60D7E6142B63
:10249C0059D9542B00F29B802B0B03F16F0C03F1D9
:1024AC006E044FEACC008FE60134A30700F108005C
:1024BC007FF4D8AE53E0444642445368D8F80C102D
:1024CC0043F00103536054F8083F3046D9608B60E9
:1024DC0000F0A8F9F6E64FEAD50C05F108023CE647
:1024EC0022445368304643F00103536000F09AF9DC
:1024FC000834E7E6611945F00105656043F0010514
:10250C00C7E904113046C1E902EE4D60A35000F05A
:10251C0089F90834D6E6930903F13901C900383337
:10252C00A0E7BC425ED0BC68606820F0030845455B
:10253C00A8EB050302D80F2B3FF766AF304600F02F
:10254C0071F90024BEE603F15C0C03F15B044FEA65
:10255C00CC0039E659F808394B4540F095801CF011
:10256C00030F0CF1FF3CF5D17B6823EA01037B6080
:10257C00490099423FF6C3AE11B9C0E64900043494
:10258C001942FBD0A44669E603F11008D4E60122F7
:10259C009B109A407B681A437A6073E702EB080140
:1025AC004942C1F30B0A51463046009200F02EFB13
:1025BC00431CDDE900237FF4F5AEDA46F5E6542B37
:1025CC0026D8130B03F16F01C9006E334AE7B3F53C
:1025DC00AA7F26D8EB0B03F1780C03F177044FEAB2
:1025EC00CC00F1E5294B186840441860B6E6CAF3F4
:1025FC000B0CBCF1000F7FF4B1AEBC68C84448F0C2
:10260C0001006060F5E61446F3E60123536095E79C
:10261C00B3F5AA7F24D8D30B03F17801C900773323
:10262C0020E740F25452934224D8AB0C03F17D0CBA
:10263C0003F17C044FEACC00C6E5ABF1080BD8449F
:10264C004FF0000AA8EB0208AFE604F1080130468F
:10265C000093FFF725FABC68009B60681968C8E610
:10266C0040F254518B420BD8930C03F17D01C900FD
:10267C007C33F7E64FF47E704FF07F0C7E24A3E59D
:10268C004FF47E717E23EDE67B6871E7CC08002069
:10269C005FFA81FC810710D00346511E2AB90AE06B
:1026AC009A0718460AD0013905D3184613F8012B9E
:1026BC006245F5D1704700207047114603290CD8AC
:1026CC000029F8D00346014401E08B42F3D01846B0
:1026DC0013F8012B6245F8D1ECE7024610B54CEA31
:1026EC000C2444EA04441046036804326340A3F10A
:1026FC00013E2EEA030313F0803F04D10439032971
:10270C001046F0D851B10346014401E08B4205D08C
:10271C00184613F8012B6245F8D110BD002010BDEE
:10272C0088420DD98B1883420AD900EB020CBAB13E
:10273C00624613F801CD994202F801CDF9D17047E8
:10274C000F2A0ED8034602F1FF3C4AB10CF1010CE2
:10275C00013B8C4411F8012B614503F8012FF9D191
:10276C00704740EA01039B074FD1A2F1100370B5EB
:10277C0001F1200C23F00F0501F1100E00F11004F3
:10278C00AC441B095EF8105C0EF1100E44F8105CA2
:10279C005EF81C5C103444F81C5C5EF8185C44F861
:1027AC00185C5EF8145CE64544F8145CEAD101331D
:1027BC0012F00C0F01EB031102F00F0400EB0313EA
:1027CC0027D08E46043C24F003064FEA940C1E449A
:1027DC001C1F5EF8045B44F8045FB442F9D10CF1A1
:1027EC00010402F0030203EB840301EB840102F108
:1027FC00FF3C4AB10CF1010C013B8C4411F8012B4C
:10280C00614503F8012FF9D170BD034602F1FF3C7D
:10281C009CE72246EBE700BF0148FFF7E1BB00BF96
:10282C00C00800200148FFF7DDBB00BFC008002036
:10283C002DE9F84F1646002900F0988006F10B059B
:10284C0080460C46FFF7E8FF162D5DD810252A466A
:10285C00AE425ED854F8041CA4F1080921F0030719
:10286C00974262DABC4B09EB0700D3F808C08445E9
:10287C0000F09780D0F804C02CF0010303445B688F
:10288C00DB0768D42CF0030C07EB0C03934247DAFC
:10289C00CB0710D454F8083CA9EB030ADAF804303F
:1028AC0023F003018C44BC44944580F211817B18C5
:1028BC00934280F2E88031464046FFF73DFC0646E5
:1028CC00E0B154F8043CA0F1080223F001034B449E
:1028DC00934200F0D2803A1F242A00F2F580132A8A
:1028EC0000F2AC80034622461168196051685960A9
:1028FC0092689A6021464046FFF7D2F84046FFF7AF
:10290C0091FF3046BDE8F88F25F00705002D2A46CB
:10291C009EDA0C230026C8F800303046BDE8F88F4C
:10292C001F46D0E90223D3609A607B1B0F2B22D861
:10293C00D9F8043003F001033B43C9F804304F4489
:10294C007B6843F001037B6026464046FFF76AFF35
:10295C003046BDE8F88FC907ADD454F8083CA9EB54
:10296C00030ADAF8041021F00301A0E71146BDE8D0
:10297C00F84FFFF7E1BBD9F8041043F0010301F065
:10298C0001012943C9F8041009EB05014B604F44C0
:10299C007B68404643F0010308317B60FFF780F809
:1029AC00D2E7DCF8040020F0030B07EB0B0C05F16D
:1029BC00100084454DDAC9073FF57DAF54F8081C6B
:1029CC00A9EB010ADAF8041021F003018B44BB4493
:1029DC0058453FF76CAF5646DAF80C1056F8080F0E
:1029EC003A1F242AC160886000F2DB80132A40F26F
:1029FC00D68021681B2ACAF808106168CAF80C1026
:102A0C0000F2E08008340AF110022168116061685C
:102A1C005160A1689160ABEB05020AEB050142F035
:102A2C00010299604A60DAF80430404603F0010371
:102A3C001D43CAF80450FFF7F5FE6EE723681B2A06
:102A4C0003606368436068D804F1080200F108036E
:102A5C004AE709EB0502ACEB050C9A604CF001035C
:102A6C00536054F8043C404603F001031D4344F802
:102A7C00045CFFF7D7FE26464FE750F8043C23F0E2
:102A8C0003031F4451E75646DAF80C1056F8080FAA
:102A9C003A1F242AC16088604CD8132A48D921686F
:102AAC001B2ACAF808106168CAF80C1056D80834EA
:102ABC000AF110021F462368D14613606368536005
:102ACC00A3683446936030E72146FFF729FE11E7EF
:102ADC005646D0E90213CB60996056F8081FDAF815
:102AEC000C303A1F242ACB6099602DD8132A29D98F
:102AFC0023681B2ACAF808306368CAF80C3042D81D
:102B0C0008340AF11003226867461A606268D146DD
:102B1C005A60A26834469A6007E7A368242A836047
:102B2C00E368C36026D004F1100200F11003DBE669
:102B3C003246BFE7214630461F46D146FFF7F0FD2F
:102B4C003446F2E63346DEE7214630466746D14648
:102B5C00FFF7E6FD3446E8E63C040020A168242A91
:102B6C00CAF81010E168CAF8141020D010340AF119
:102B7C0018029FE7236904F118020361636943613A
:102B8C0000F11803B0E6A368242ACAF81030E368F1
:102B9C00CAF8143022D010340AF11803B3E73246C5
:102BAC0033E721463046FFF7BBFD174B33E722696D
:102BBC001834CAF8182054F8042CCAF81C200AF14E
:102BCC00200277E7A168242ACAF81010E168CAF835
:102BDC0014100ED010340AF1180216E723691834B9
:102BEC00CAF8183054F8043CCAF81C300AF1200317
:102BFC0089E722691834CAF8182054F8042CCAF84A
:102C0C001C200AF1200200E73C040020002238B509
:102C1C00064D044608462A60FDF780FC431C00D094
:102C2C0038BD2B68002BFBD0236038BD0009002079
:102C3C0010B50C46B1F90E1000F050F9002803DB6A
:102C4C00236D0344236510BDA38923F48053A38112
:102C5C0010BD00BF2DE9F0410C46B1F90C101F4618
:102C6C00CB05054616460BD421F48051A1813B4679
:102C7C0032462846B4F90E10BDE8F04100F01EB8FB
:102C8C00B4F90E100223002200F012F9B4F90C1062
:102C9C00EAE700BF10B50C46B1F90E1000F008F9C8
:102CAC00A389421C0EBF23F4805343F48053206548
:102CBC00A38110BDB1F90E1000F05CB838B50C460C
:102CCC00114600228446074D20462A601A46644667
:102CDC00FDF766FB431C00D038BD2B68002BFBD0E6
:102CEC00236038BD000900202DE9F047DFF87CA0F7
:102CFC000646DAF8000098460F469146FFF770F941
:102D0C001B4B1B68D3F8484124B365681F2D26DC88
:102D1C005EB96B1C0235DAF80000636044F825706C
:102D2C00FFF760F90020BDE8F087012304EB850173
:102D3C00C1F88890D4F88821AB401A43022EC4F80D
:102D4C008821C1F80881E4D1D4F88C211343C4F84C
:102D5C008C31DEE703F5A674C3F84841D5E7DAF801
:102D6C000000FFF73FF94FF0FF30DCE7380400209C
:102D7C00602F0008002238B5064D044608462A602C
:102D8C00FDF728FB431C00D038BD2B68002BFBD073
:102D9C00236038BD0009002070B500294BD00646D1
:102DAC000C4610B1836B002B48D0636ED80734D51A
:102DBC00B4F90C30002B3ED021463046FEF7B2FC65
:102DCC00E36A054633B13046E16998470028B8BF3D
:102DDC004FF0FF35A3891A063BD4216B41B104F1A6
:102DEC004003994202D03046FEF75AFE002323637B
:102DFC00616C21B13046FEF753FE00236364FEF78D
:102E0C00DDFD0022636EA281DB0727D5A06DFFF7E5
:102E1C00E5F8FEF7D9FD284670BDA3899905CBD4FA
:102E2C00A06DFFF7DDF8B4F90C30002BC4D1656E42
:102E3C0015F0010508D00025284670BDFEF738FDB9
:102E4C00636ED807B4D4E8E7A06DFFF7CBF828463B
:102E5C0070BD30462169FEF723FEBEE7A06DFFF77B
:102E6C00C1F8D3E770B50026074D04460846114655
:102E7C002E60FDF7DBFA431C00D070BD2B68002BD5
:102E8C00FBD0236070BD00BF00090020002238B5C4
:102E9C00064D044608462A60FDF776FA431C00D01E
:102EAC0038BD2B68002BFBD0236038BD00090020F7
:102EBC0038B50C46114600228446074D20462A6040
:102ECC001A466446FDF792FA431C00D038BD2B68B5
:102EDC00002BFBD0236038BD0009002038B50C4610
:102EEC00114600228446074D20462A601A46644645
:102EFC00FDF784FA431C00D038BD2B68002BFBD0A7
:102F0C00236038BD00090020F8B500BFF8BC08BC30
:102F1C009E467047F8B500BFF8BC08BC9E4670478B
:102F2C0068656C6C6F0D0000000000000000000074
:102F3C000102030406070809000000000102030453
:102F4C0002030405060708090A0B0C0D0E0F1010DE
:0C2F5C0001020000100000200A0000002C
:082F68001117000831010008F7
:042F70000D01000847
:102F74000024F400010000001000000010000020F4
:102F840000000000FC02002064030020CC030020A9
:102F9400000000000000000000000000000000002D
:102FA400000000000000000000000000000000001D
:102FB400000000000000000000000000000000000D
:102FC40000000000000000000000000000000000FD
:102FD40000000000000000000000000000000000ED
:102FE40000000000000000000000000000000000DD
:102FF40000000000000000000000000000000000CD
:1030040000000000000000000000000000000000BC
:1030140000000000000000000000000000000000AC
:10302400000000000000000001000000000000009B
:103034000E33CDAB34126DE6ECDE05000B00000060
:10304400000000000000000000000000000000007C
:10305400000000000000000000000000000000006C
:10306400000000000000000000000000000000005C
:10307400000000000000000000000000000000004C
:1033A4000000000000000000BC0800200000000035
:1033B400000000003C0400203C04002044040020E1
:1033C400440400204C0400204C0400205404002039
:1033D400540400205C0400205C04002064040020E9
:1033E400640400206C0400206C0400207404002099
:1033F400740400207C0400207C0400208404002049
:10340400840400208C0400208C04002094040020F8
:10341400940400209C0400209C040020A4040020A8
:10342400A4040020AC040020AC040020B404002058
:10343400B4040020BC040020BC040020C404002008
:10344400C4040020CC040020CC040020D4040020B8
:10345400D4040020DC040020DC040020E404002068
:10346400E4040020EC040020EC040020F404002018
:10347400F4040020FC040020FC04002004050020C7
:10348400040500200C0500200C0500201405002074
:10349400140500201C0500201C0500202405002024
:1034A400240500202C0500202C05002034050020D4
:1034B400340500203C0500203C0500204405002084
:1034C400440500204C0500204C0500205405002034
:1034D400540500205C0500205C05002064050020E4
:1034E400640500206C0500206C0500207405002094
:1034F400740500207C0500207C0500208405002044
:10350400840500208C0500208C05002094050020F3
:10351400940500209C0500209C050020A4050020A3
:10352400A4050020AC050020AC050020B405002053
:10353400B4050020BC050020BC050020C405002003
:10354400C4050020CC050020CC050020D4050020B3
:10355400D4050020DC050020DC050020E405002063
:10356400E4050020EC050020EC050020F405002013
:10357400F4050020FC050020FC05002004060020C2
:10358400040600200C0600200C060020140600206F
:10359400140600201C0600201C060020240600201F
:1035A400240600202C0600202C06002034060020CF
:1035B400340600203C0600203C060020440600207F
:1035C400440600204C0600204C060020540600202F
:1035D400540600205C0600205C06002064060020DF
:1035E400640600206C0600206C060020740600208F
:1035F400740600207C0600207C060020840600203F
:10360400840600208C0600208C06002094060020EE
:10361400940600209C0600209C060020A40600209E
:10362400A4060020AC060020AC060020B40600204E
:10363400B4060020BC060020BC060020C4060020FE
:10364400C4060020CC060020CC060020D4060020AE
:10365400D4060020DC060020DC060020E40600205E
:10366400E4060020EC060020EC060020F40600200E
:10367400F4060020FC060020FC06002004070020BD
:10368400040700200C0700200C070020140700206A
:10369400140700201C0700201C070020240700201A
:1036A400240700202C0700202C07002034070020CA
:1036B400340700203C0700203C070020440700207A
:1036C400440700204C0700204C070020540700202A
:1036D400540700205C0700205C07002064070020DA
:1036E400640700206C0700206C070020740700208A
:1036F400740700207C0700207C070020840700203A
:10370400840700208C0700208C07002094070020E9
:10371400940700209C0700209C070020A407002099
:10372400A4070020AC070020AC070020B407002049
:10373400B4070020BC070020BC070020C4070020F9
:10374400C4070020CC070020CC070020D4070020A9
:10375400D4070020DC070020DC070020E407002059
:10376400E4070020EC070020EC070020F407002009
:10377400F4070020FC070020FC07002004080020B8
:10378400040800200C0800200C0800201408002065
:10379400140800201C0800201C0800202408002015
:1037A400240800202C0800202C08002034080020C5
:0C37B40034080020FFFFFFFF00000200AF
:040000050800057575
:00000001FF
